{
  "_format": "hh-sol-artifact-1",
  "contractName": "CertifyPro",
  "sourceName": "contracts/CertifyPro.sol",
  "abi": [
    {
      "inputs": [],
      "stateMutability": "nonpayable",
      "type": "constructor"
    },
    {
      "anonymous": false,
      "inputs": [
        {
          "indexed": true,
          "internalType": "bytes32",
          "name": "certHash",
          "type": "bytes32"
        },
        {
          "indexed": false,
          "internalType": "string",
          "name": "studentName",
          "type": "string"
        },
        {
          "indexed": false,
          "internalType": "string",
          "name": "university",
          "type": "string"
        },
        {
          "indexed": false,
          "internalType": "uint256",
          "name": "issuedAt",
          "type": "uint256"
        }
      ],
      "name": "CertificateIssued",
      "type": "event"
    },
    {
      "inputs": [
        {
          "internalType": "address",
          "name": "_issuer",
          "type": "address"
        }
      ],
      "name": "authorizeIssuer",
      "outputs": [],
      "stateMutability": "nonpayable",
      "type": "function"
    },
    {
      "inputs": [
        {
          "internalType": "address",
          "name": "",
          "type": "address"
        }
      ],
      "name": "authorizedIssuers",
      "outputs": [
        {
          "internalType": "bool",
          "name": "",
          "type": "bool"
        }
      ],
      "stateMutability": "view",
      "type": "function"
    },
    {
      "inputs": [
        {
          "internalType": "bytes32",
          "name": "_certHash",
          "type": "bytes32"
        },
        {
          "internalType": "string",
          "name": "_studentName",
          "type": "string"
        },
        {
          "internalType": "string",
          "name": "_degree",
          "type": "string"
        },
        {
          "internalType": "string",
          "name": "_university",
          "type": "string"
        }
      ],
      "name": "issueCertificate",
      "outputs": [],
      "stateMutability": "nonpayable",
      "type": "function"
    },
    {
      "inputs": [],
      "name": "owner",
      "outputs": [
        {
          "internalType": "address",
          "name": "",
          "type": "address"
        }
      ],
      "stateMutability": "view",
      "type": "function"
    },
    {
      "inputs": [
        {
          "internalType": "address",
          "name": "_issuer",
          "type": "address"
        }
      ],
      "name": "revokeIssuer",
      "outputs": [],
      "stateMutability": "nonpayable",
      "type": "function"
    },
    {
      "inputs": [
        {
          "internalType": "bytes32",
          "name": "_certHash",
          "type": "bytes32"
        }
      ],
      "name": "verifyCertificate",
      "outputs": [
        {
          "internalType": "bool",
          "name": "isValid",
          "type": "bool"
        },
        {
          "internalType": "string",
          "name": "studentName",
          "type": "string"
        },
        {
          "internalType": "string",
          "name": "degree",
          "type": "string"
        },
        {
          "internalType": "string",
          "name": "university",
          "type": "string"
        },
        {
          "internalType": "uint256",
          "name": "issuedAt",
          "type": "uint256"
        },
        {
          "internalType": "address",
          "name": "issuedBy",
          "type": "address"
        }
      ],
      "stateMutability": "view",
      "type": "function"
    }
  ],
  "bytecode": "0x6080604052348015600f57600080fd5b50336000806101000a81548173ffffffffffffffffffffffffffffffffffffffff021916908373ffffffffffffffffffffffffffffffffffffffff1602179055506001600260003373ffffffffffffffffffffffffffffffffffffffff1673ffffffffffffffffffffffffffffffffffffffff16815260200190815260200160002060006101000a81548160ff0219169083151502179055506111ad806100b76000396000f3fe608060405234801561001057600080fd5b50600436106100615760003560e01c806262967914610066578063436693d514610082578063850c17681461009e5780638da5cb5b146100d3578063a246b968146100f1578063f731fa0f1461010d575b600080fd5b610080600480360381019061007b91906108eb565b61013d565b005b61009c600480360381019061009791906108eb565b610226565b005b6100b860048036038101906100b3919061094e565b61030f565b6040516100ca96959493929190610a4e565b60405180910390f35b6100db6105f4565b6040516100e89190610ac4565b60405180910390f35b61010b60048036038101906101069190610c14565b610618565b005b610127600480360381019061012291906108eb565b610859565b6040516101349190610ccf565b60405180910390f35b60008054906101000a900473ffffffffffffffffffffffffffffffffffffffff1673ffffffffffffffffffffffffffffffffffffffff163373ffffffffffffffffffffffffffffffffffffffff16146101cb576040517f08c379a00000000000000000000000000000000000000000000000000000000081526004016101c290610d36565b60405180910390fd5b6000600260008373ffffffffffffffffffffffffffffffffffffffff1673ffffffffffffffffffffffffffffffffffffffff16815260200190815260200160002060006101000a81548160ff02191690831515021790555050565b60008054906101000a900473ffffffffffffffffffffffffffffffffffffffff1673ffffffffffffffffffffffffffffffffffffffff163373ffffffffffffffffffffffffffffffffffffffff16146102b4576040517f08c379a00000000000000000000000000000000000000000000000000000000081526004016102ab90610d36565b60405180910390fd5b6001600260008373ffffffffffffffffffffffffffffffffffffffff1673ffffffffffffffffffffffffffffffffffffffff16815260200190815260200160002060006101000a81548160ff02191690831515021790555050565b600060608060606000806000600160008981526020019081526020016000206040518060c001604052908160008201805461034990610d85565b80601f016020809104026020016040519081016040528092919081815260200182805461037590610d85565b80156103c25780601f10610397576101008083540402835291602001916103c2565b820191906000526020600020905b8154815290600101906020018083116103a557829003601f168201915b505050505081526020016001820180546103db90610d85565b80601f016020809104026020016040519081016040528092919081815260200182805461040790610d85565b80156104545780601f1061042957610100808354040283529160200191610454565b820191906000526020600020905b81548152906001019060200180831161043757829003601f168201915b5050505050815260200160028201805461046d90610d85565b80601f016020809104026020016040519081016040528092919081815260200182805461049990610d85565b80156104e65780601f106104bb576101008083540402835291602001916104e6565b820191906000526020600020905b8154815290600101906020018083116104c957829003601f168201915b50505050508152602001600382015481526020016004820160009054906101000a900473ffffffffffffffffffffffffffffffffffffffff1673ffffffffffffffffffffffffffffffffffffffff1673ffffffffffffffffffffffffffffffffffffffff1681526020016004820160149054906101000a900460ff16151515158152505090508060a001516105c2576000806000604051806020016040528060008152509190604051806020016040528060008152509190604051806020016040528060008152509190965096509650965096509650506105eb565b600181600001518260200151836040015184606001518560800151965096509650965096509650505b91939550919395565b60008054906101000a900473ffffffffffffffffffffffffffffffffffffffff1681565b600260003373ffffffffffffffffffffffffffffffffffffffff1673ffffffffffffffffffffffffffffffffffffffff16815260200190815260200160002060009054906101000a900460ff166106a4576040517f08c379a000000000000000000000000000000000000000000000000000000000815260040161069b90610e28565b60405180910390fd5b6001600085815260200190815260200160002060040160149054906101000a900460ff1615610708576040517f08c379a00000000000000000000000000000000000000000000000000000000081526004016106ff90610e94565b60405180910390fd5b6040518060c001604052808481526020018381526020018281526020014281526020013373ffffffffffffffffffffffffffffffffffffffff168152602001600115158152506001600086815260200190815260200160002060008201518160000190816107769190611060565b50602082015181600101908161078c9190611060565b5060408201518160020190816107a29190611060565b506060820151816003015560808201518160040160006101000a81548173ffffffffffffffffffffffffffffffffffffffff021916908373ffffffffffffffffffffffffffffffffffffffff16021790555060a08201518160040160146101000a81548160ff021916908315150217905550905050837f6aa5049566532374d8eb77423544658da943403816bc40386bcdbeacd3ba9ff284834260405161084b93929190611132565b60405180910390a250505050565b60026020528060005260406000206000915054906101000a900460ff1681565b6000604051905090565b600080fd5b600080fd5b600073ffffffffffffffffffffffffffffffffffffffff82169050919050565b60006108b88261088d565b9050919050565b6108c8816108ad565b81146108d357600080fd5b50565b6000813590506108e5816108bf565b92915050565b60006020828403121561090157610900610883565b5b600061090f848285016108d6565b91505092915050565b6000819050919050565b61092b81610918565b811461093657600080fd5b50565b60008135905061094881610922565b92915050565b60006020828403121561096457610963610883565b5b600061097284828501610939565b91505092915050565b60008115159050919050565b6109908161097b565b82525050565b600081519050919050565b600082825260208201905092915050565b60005b838110156109d05780820151818401526020810190506109b5565b60008484015250505050565b6000601f19601f8301169050919050565b60006109f882610996565b610a0281856109a1565b9350610a128185602086016109b2565b610a1b816109dc565b840191505092915050565b6000819050919050565b610a3981610a26565b82525050565b610a48816108ad565b82525050565b600060c082019050610a636000830189610987565b8181036020830152610a7581886109ed565b90508181036040830152610a8981876109ed565b90508181036060830152610a9d81866109ed565b9050610aac6080830185610a30565b610ab960a0830184610a3f565b979650505050505050565b6000602082019050610ad96000830184610a3f565b92915050565b600080fd5b600080fd5b7f4e487b7100000000000000000000000000000000000000000000000000000000600052604160045260246000fd5b610b21826109dc565b810181811067ffffffffffffffff82111715610b4057610b3f610ae9565b5b80604052505050565b6000610b53610879565b9050610b5f8282610b18565b919050565b600067ffffffffffffffff821115610b7f57610b7e610ae9565b5b610b88826109dc565b9050602081019050919050565b82818337600083830152505050565b6000610bb7610bb284610b64565b610b49565b905082815260208101848484011115610bd357610bd2610ae4565b5b610bde848285610b95565b509392505050565b600082601f830112610bfb57610bfa610adf565b5b8135610c0b848260208601610ba4565b91505092915050565b60008060008060808587031215610c2e57610c2d610883565b5b6000610c3c87828801610939565b945050602085013567ffffffffffffffff811115610c5d57610c5c610888565b5b610c6987828801610be6565b935050604085013567ffffffffffffffff811115610c8a57610c89610888565b5b610c9687828801610be6565b925050606085013567ffffffffffffffff811115610cb757610cb6610888565b5b610cc387828801610be6565b91505092959194509250565b6000602082019050610ce46000830184610987565b92915050565b7f4f6e6c79206f776e65722063616e20646f207468697300000000000000000000600082015250565b6000610d206016836109a1565b9150610d2b82610cea565b602082019050919050565b60006020820190508181036000830152610d4f81610d13565b9050919050565b7f4e487b7100000000000000000000000000000000000000000000000000000000600052602260045260246000fd5b60006002820490506001821680610d9d57607f821691505b602082108103610db057610daf610d56565b5b50919050565b7f596f7520617265206e6f7420616e20617574686f72697a656420756e6976657260008201527f7369747900000000000000000000000000000000000000000000000000000000602082015250565b6000610e126024836109a1565b9150610e1d82610db6565b604082019050919050565b60006020820190508181036000830152610e4181610e05565b9050919050565b7f436572746966696361746520616c726561647920697373756564000000000000600082015250565b6000610e7e601a836109a1565b9150610e8982610e48565b602082019050919050565b60006020820190508181036000830152610ead81610e71565b9050919050565b60008190508160005260206000209050919050565b60006020601f8301049050919050565b600082821b905092915050565b600060088302610f167fffffffffffffffffffffffffffffffffffffffffffffffffffffffffffffffff82610ed9565b610f208683610ed9565b95508019841693508086168417925050509392505050565b6000819050919050565b6000610f5d610f58610f5384610a26565b610f38565b610a26565b9050919050565b6000819050919050565b610f7783610f42565b610f8b610f8382610f64565b848454610ee6565b825550505050565b600090565b610fa0610f93565b610fab818484610f6e565b505050565b5b81811015610fcf57610fc4600082610f98565b600181019050610fb1565b5050565b601f82111561101457610fe581610eb4565b610fee84610ec9565b81016020851015610ffd578190505b61101161100985610ec9565b830182610fb0565b50505b505050565b600082821c905092915050565b600061103760001984600802611019565b1980831691505092915050565b60006110508383611026565b9150826002028217905092915050565b61106982610996565b67ffffffffffffffff81111561108257611081610ae9565b5b61108c8254610d85565b611097828285610fd3565b600060209050601f8311600181146110ca57600084156110b8578287015190505b6110c28582611044565b86555061112a565b601f1984166110d886610eb4565b60005b82811015611100578489015182556001820191506020850194506020810190506110db565b8683101561111d5784890151611119601f891682611026565b8355505b6001600288020188555050505b505050505050565b6000606082019050818103600083015261114c81866109ed565b9050818103602083015261116081856109ed565b905061116f6040830184610a30565b94935050505056fea2646970667358221220f393c2dbd59a05d89c52345e2a7242f549464c5da3d52f54db57c3d8e2a80d6764736f6c634300081c0033",
  "linkReferences": {},
  "deployedLinkReferences": {}
}